{
    "contractName": "PictureLocationNFT",
    "abi": [
        {
            "inputs": [],
            "stateMutability": "nonpayable",
            "type": "constructor"
        },
        {
            "anonymous": false,
            "inputs": [
                {
                    "indexed": true,
                    "internalType": "address",
                    "name": "owner",
                    "type": "address"
                },
                {
                    "indexed": true,
                    "internalType": "address",
                    "name": "approved",
                    "type": "address"
                },
                {
                    "indexed": true,
                    "internalType": "uint256",
                    "name": "tokenId",
                    "type": "uint256"
                }
            ],
            "name": "Approval",
            "type": "event"
        },
        {
            "anonymous": false,
            "inputs": [
                {
                    "indexed": true,
                    "internalType": "address",
                    "name": "owner",
                    "type": "address"
                },
                {
                    "indexed": true,
                    "internalType": "address",
                    "name": "operator",
                    "type": "address"
                },
                {
                    "indexed": false,
                    "internalType": "bool",
                    "name": "approved",
                    "type": "bool"
                }
            ],
            "name": "ApprovalForAll",
            "type": "event"
        },
        {
            "anonymous": false,
            "inputs": [
                {
                    "indexed": true,
                    "internalType": "address",
                    "name": "from",
                    "type": "address"
                },
                {
                    "indexed": true,
                    "internalType": "address",
                    "name": "to",
                    "type": "address"
                },
                {
                    "indexed": true,
                    "internalType": "uint256",
                    "name": "tokenId",
                    "type": "uint256"
                }
            ],
            "name": "Transfer",
            "type": "event"
        },
        {
            "inputs": [
                {
                    "internalType": "address",
                    "name": "to",
                    "type": "address"
                },
                {
                    "internalType": "uint256",
                    "name": "tokenId",
                    "type": "uint256"
                }
            ],
            "name": "approve",
            "outputs": [],
            "stateMutability": "nonpayable",
            "type": "function"
        },
        {
            "inputs": [
                {
                    "internalType": "address",
                    "name": "owner",
                    "type": "address"
                }
            ],
            "name": "balanceOf",
            "outputs": [
                {
                    "internalType": "uint256",
                    "name": "",
                    "type": "uint256"
                }
            ],
            "stateMutability": "view",
            "type": "function",
            "constant": true
        },
        {
            "inputs": [
                {
                    "internalType": "uint256",
                    "name": "tokenId",
                    "type": "uint256"
                }
            ],
            "name": "getApproved",
            "outputs": [
                {
                    "internalType": "address",
                    "name": "",
                    "type": "address"
                }
            ],
            "stateMutability": "view",
            "type": "function",
            "constant": true
        },
        {
            "inputs": [],
            "name": "idCounter",
            "outputs": [
                {
                    "internalType": "uint256",
                    "name": "",
                    "type": "uint256"
                }
            ],
            "stateMutability": "view",
            "type": "function",
            "constant": true
        },
        {
            "inputs": [
                {
                    "internalType": "address",
                    "name": "owner",
                    "type": "address"
                },
                {
                    "internalType": "address",
                    "name": "operator",
                    "type": "address"
                }
            ],
            "name": "isApprovedForAll",
            "outputs": [
                {
                    "internalType": "bool",
                    "name": "",
                    "type": "bool"
                }
            ],
            "stateMutability": "view",
            "type": "function",
            "constant": true
        },
        {
            "inputs": [],
            "name": "name",
            "outputs": [
                {
                    "internalType": "string",
                    "name": "",
                    "type": "string"
                }
            ],
            "stateMutability": "view",
            "type": "function",
            "constant": true
        },
        {
            "inputs": [
                {
                    "internalType": "uint256",
                    "name": "tokenId",
                    "type": "uint256"
                }
            ],
            "name": "ownerOf",
            "outputs": [
                {
                    "internalType": "address",
                    "name": "",
                    "type": "address"
                }
            ],
            "stateMutability": "view",
            "type": "function",
            "constant": true
        },
        {
            "inputs": [
                {
                    "internalType": "address",
                    "name": "from",
                    "type": "address"
                },
                {
                    "internalType": "address",
                    "name": "to",
                    "type": "address"
                },
                {
                    "internalType": "uint256",
                    "name": "tokenId",
                    "type": "uint256"
                }
            ],
            "name": "safeTransferFrom",
            "outputs": [],
            "stateMutability": "nonpayable",
            "type": "function"
        },
        {
            "inputs": [
                {
                    "internalType": "address",
                    "name": "from",
                    "type": "address"
                },
                {
                    "internalType": "address",
                    "name": "to",
                    "type": "address"
                },
                {
                    "internalType": "uint256",
                    "name": "tokenId",
                    "type": "uint256"
                },
                {
                    "internalType": "bytes",
                    "name": "_data",
                    "type": "bytes"
                }
            ],
            "name": "safeTransferFrom",
            "outputs": [],
            "stateMutability": "nonpayable",
            "type": "function"
        },
        {
            "inputs": [
                {
                    "internalType": "address",
                    "name": "operator",
                    "type": "address"
                },
                {
                    "internalType": "bool",
                    "name": "approved",
                    "type": "bool"
                }
            ],
            "name": "setApprovalForAll",
            "outputs": [],
            "stateMutability": "nonpayable",
            "type": "function"
        },
        {
            "inputs": [
                {
                    "internalType": "bytes4",
                    "name": "interfaceId",
                    "type": "bytes4"
                }
            ],
            "name": "supportsInterface",
            "outputs": [
                {
                    "internalType": "bool",
                    "name": "",
                    "type": "bool"
                }
            ],
            "stateMutability": "view",
            "type": "function",
            "constant": true
        },
        {
            "inputs": [],
            "name": "symbol",
            "outputs": [
                {
                    "internalType": "string",
                    "name": "",
                    "type": "string"
                }
            ],
            "stateMutability": "view",
            "type": "function",
            "constant": true
        },
        {
            "inputs": [
                {
                    "internalType": "uint256",
                    "name": "tokenId",
                    "type": "uint256"
                }
            ],
            "name": "tokenURI",
            "outputs": [
                {
                    "internalType": "string",
                    "name": "",
                    "type": "string"
                }
            ],
            "stateMutability": "view",
            "type": "function",
            "constant": true
        },
        {
            "inputs": [
                {
                    "internalType": "address",
                    "name": "from",
                    "type": "address"
                },
                {
                    "internalType": "address",
                    "name": "to",
                    "type": "address"
                },
                {
                    "internalType": "uint256",
                    "name": "tokenId",
                    "type": "uint256"
                }
            ],
            "name": "transferFrom",
            "outputs": [],
            "stateMutability": "nonpayable",
            "type": "function"
        },
        {
            "inputs": [],
            "name": "tokensTotal",
            "outputs": [
                {
                    "internalType": "uint256",
                    "name": "",
                    "type": "uint256"
                }
            ],
            "stateMutability": "view",
            "type": "function",
            "constant": true
        },
        {
            "inputs": [
                {
                    "internalType": "string",
                    "name": "plnUri",
                    "type": "string"
                }
            ],
            "name": "createToken",
            "outputs": [
                {
                    "internalType": "uint256",
                    "name": "",
                    "type": "uint256"
                }
            ],
            "stateMutability": "nonpayable",
            "type": "function"
        }
    ],
    "bytecode": "0x60806040523480156200001157600080fd5b506040518060400160405280601281526020017f506963747572654c6f636174696f6e4e465400000000000000000000000000008152506040518060400160405280600381526020017f504c4e0000000000000000000000000000000000000000000000000000000000815250816000908051906020019062000096929190620000c0565b508060019080519060200190620000af929190620000c0565b5050506000600781905550620001d5565b828054620000ce906200019f565b90600052602060002090601f016020900481019282620000f257600085556200013e565b82601f106200010d57805160ff19168380011785556200013e565b828001600101855582156200013e579182015b828111156200013d57825182559160200191906001019062000120565b5b5090506200014d919062000151565b5090565b5b808211156200016c57600081600090555060010162000152565b5090565b7f4e487b7100000000000000000000000000000000000000000000000000000000600052602260045260246000fd5b60006002820490506001821680620001b857607f821691505b60208210811415620001cf57620001ce62000170565b5b50919050565b612c3a80620001e56000396000f3fe608060405234801561001057600080fd5b50600436106101005760003560e01c80636352211e11610097578063b88d4fde11610066578063b88d4fde146102bf578063c87b56dd146102db578063e985e9c51461030b578063eb08ab281461033b57610100565b80636352211e1461022557806370a082311461025557806395d89b4114610285578063a22cb465146102a357610100565b806323b872dd116100d357806323b872dd1461019f578063394610cf146101bb57806342842e0e146101d957806345576f94146101f557610100565b806301ffc9a71461010557806306fdde0314610135578063081812fc14610153578063095ea7b314610183575b600080fd5b61011f600480360381019061011a91906119af565b610359565b60405161012c91906119f7565b60405180910390f35b61013d61043b565b60405161014a9190611aab565b60405180910390f35b61016d60048036038101906101689190611b03565b6104cd565b60405161017a9190611b71565b60405180910390f35b61019d60048036038101906101989190611bb8565b610552565b005b6101b960048036038101906101b49190611bf8565b61066a565b005b6101c36106ca565b6040516101d09190611c5a565b60405180910390f35b6101f360048036038101906101ee9190611bf8565b6106d4565b005b61020f600480360381019061020a9190611daa565b6106f4565b60405161021c9190611c5a565b60405180910390f35b61023f600480360381019061023a9190611b03565b61072e565b60405161024c9190611b71565b60405180910390f35b61026f600480360381019061026a9190611df3565b6107e0565b60405161027c9190611c5a565b60405180910390f35b61028d610898565b60405161029a9190611aab565b60405180910390f35b6102bd60048036038101906102b89190611e4c565b61092a565b005b6102d960048036038101906102d49190611f2d565b610aab565b005b6102f560048036038101906102f09190611b03565b610b0d565b6040516103029190611aab565b60405180910390f35b61032560048036038101906103209190611fb0565b610c5f565b60405161033291906119f7565b60405180910390f35b610343610cf3565b6040516103509190611c5a565b60405180910390f35b60007f80ac58cd000000000000000000000000000000000000000000000000000000007bffffffffffffffffffffffffffffffffffffffffffffffffffffffff1916827bffffffffffffffffffffffffffffffffffffffffffffffffffffffff1916148061042457507f5b5e139f000000000000000000000000000000000000000000000000000000007bffffffffffffffffffffffffffffffffffffffffffffffffffffffff1916827bffffffffffffffffffffffffffffffffffffffffffffffffffffffff1916145b80610434575061043382610cf9565b5b9050919050565b60606000805461044a9061201f565b80601f01602080910402602001604051908101604052809291908181526020018280546104769061201f565b80156104c35780601f10610498576101008083540402835291602001916104c3565b820191906000526020600020905b8154815290600101906020018083116104a657829003601f168201915b5050505050905090565b60006104d882610d63565b610517576040517f08c379a000000000000000000000000000000000000000000000000000000000815260040161050e906120c3565b60405180910390fd5b6004600083815260200190815260200160002060009054906101000a900473ffffffffffffffffffffffffffffffffffffffff169050919050565b600061055d8261072e565b90508073ffffffffffffffffffffffffffffffffffffffff168373ffffffffffffffffffffffffffffffffffffffff1614156105ce576040517f08c379a00000000000000000000000000000000000000000000000000000000081526004016105c590612155565b60405180910390fd5b8073ffffffffffffffffffffffffffffffffffffffff166105ed610dcf565b73ffffffffffffffffffffffffffffffffffffffff16148061061c575061061b81610616610dcf565b610c5f565b5b61065b576040517f08c379a0000000000000000000000000000000000000000000000000000000008152600401610652906121e7565b60405180910390fd5b6106658383610dd7565b505050565b61067b610675610dcf565b82610e90565b6106ba576040517f08c379a00000000000000000000000000000000000000000000000000000000081526004016106b190612279565b60405180910390fd5b6106c5838383610f6e565b505050565b6000600754905090565b6106ef83838360405180602001604052806000815250610aab565b505050565b600080600754905061070633826111ca565b61071081846111e8565b600160075461071f91906122c8565b60078190555080915050919050565b6000806002600084815260200190815260200160002060009054906101000a900473ffffffffffffffffffffffffffffffffffffffff169050600073ffffffffffffffffffffffffffffffffffffffff168173ffffffffffffffffffffffffffffffffffffffff1614156107d7576040517f08c379a00000000000000000000000000000000000000000000000000000000081526004016107ce90612390565b60405180910390fd5b80915050919050565b60008073ffffffffffffffffffffffffffffffffffffffff168273ffffffffffffffffffffffffffffffffffffffff161415610851576040517f08c379a000000000000000000000000000000000000000000000000000000000815260040161084890612422565b60405180910390fd5b600360008373ffffffffffffffffffffffffffffffffffffffff1673ffffffffffffffffffffffffffffffffffffffff168152602001908152602001600020549050919050565b6060600180546108a79061201f565b80601f01602080910402602001604051908101604052809291908181526020018280546108d39061201f565b80156109205780601f106108f557610100808354040283529160200191610920565b820191906000526020600020905b81548152906001019060200180831161090357829003601f168201915b5050505050905090565b610932610dcf565b73ffffffffffffffffffffffffffffffffffffffff168273ffffffffffffffffffffffffffffffffffffffff1614156109a0576040517f08c379a00000000000000000000000000000000000000000000000000000000081526004016109979061248e565b60405180910390fd5b80600560006109ad610dcf565b73ffffffffffffffffffffffffffffffffffffffff1673ffffffffffffffffffffffffffffffffffffffff16815260200190815260200160002060008473ffffffffffffffffffffffffffffffffffffffff1673ffffffffffffffffffffffffffffffffffffffff16815260200190815260200160002060006101000a81548160ff0219169083151502179055508173ffffffffffffffffffffffffffffffffffffffff16610a5a610dcf565b73ffffffffffffffffffffffffffffffffffffffff167f17307eab39ab6107e8899845ad3d59bd9653f200f220920489ca2b5937696c3183604051610a9f91906119f7565b60405180910390a35050565b610abc610ab6610dcf565b83610e90565b610afb576040517f08c379a0000000000000000000000000000000000000000000000000000000008152600401610af290612279565b60405180910390fd5b610b078484848461125c565b50505050565b6060610b1882610d63565b610b57576040517f08c379a0000000000000000000000000000000000000000000000000000000008152600401610b4e90612520565b60405180910390fd5b6000600660008481526020019081526020016000208054610b779061201f565b80601f0160208091040260200160405190810160405280929190818152602001828054610ba39061201f565b8015610bf05780601f10610bc557610100808354040283529160200191610bf0565b820191906000526020600020905b815481529060010190602001808311610bd357829003601f168201915b505050505090506000610c016112b8565b9050600081511415610c17578192505050610c5a565b600082511115610c4c578082604051602001610c3492919061257c565b60405160208183030381529060405292505050610c5a565b610c55846112cf565b925050505b919050565b6000600560008473ffffffffffffffffffffffffffffffffffffffff1673ffffffffffffffffffffffffffffffffffffffff16815260200190815260200160002060008373ffffffffffffffffffffffffffffffffffffffff1673ffffffffffffffffffffffffffffffffffffffff16815260200190815260200160002060009054906101000a900460ff16905092915050565b60075481565b60007f01ffc9a7000000000000000000000000000000000000000000000000000000007bffffffffffffffffffffffffffffffffffffffffffffffffffffffff1916827bffffffffffffffffffffffffffffffffffffffffffffffffffffffff1916149050919050565b60008073ffffffffffffffffffffffffffffffffffffffff166002600084815260200190815260200160002060009054906101000a900473ffffffffffffffffffffffffffffffffffffffff1673ffffffffffffffffffffffffffffffffffffffff1614159050919050565b600033905090565b816004600083815260200190815260200160002060006101000a81548173ffffffffffffffffffffffffffffffffffffffff021916908373ffffffffffffffffffffffffffffffffffffffff160217905550808273ffffffffffffffffffffffffffffffffffffffff16610e4a8361072e565b73ffffffffffffffffffffffffffffffffffffffff167f8c5be1e5ebec7d5bd14f71427d1e84f3dd0314c0f7b2291e5b200ac8c7c3b92560405160405180910390a45050565b6000610e9b82610d63565b610eda576040517f08c379a0000000000000000000000000000000000000000000000000000000008152600401610ed190612612565b60405180910390fd5b6000610ee58361072e565b90508073ffffffffffffffffffffffffffffffffffffffff168473ffffffffffffffffffffffffffffffffffffffff161480610f5457508373ffffffffffffffffffffffffffffffffffffffff16610f3c846104cd565b73ffffffffffffffffffffffffffffffffffffffff16145b80610f655750610f648185610c5f565b5b91505092915050565b8273ffffffffffffffffffffffffffffffffffffffff16610f8e8261072e565b73ffffffffffffffffffffffffffffffffffffffff1614610fe4576040517f08c379a0000000000000000000000000000000000000000000000000000000008152600401610fdb906126a4565b60405180910390fd5b600073ffffffffffffffffffffffffffffffffffffffff168273ffffffffffffffffffffffffffffffffffffffff161415611054576040517f08c379a000000000000000000000000000000000000000000000000000000000815260040161104b90612736565b60405180910390fd5b61105f838383611376565b61106a600082610dd7565b6001600360008573ffffffffffffffffffffffffffffffffffffffff1673ffffffffffffffffffffffffffffffffffffffff16815260200190815260200160002060008282546110ba9190612756565b925050819055506001600360008473ffffffffffffffffffffffffffffffffffffffff1673ffffffffffffffffffffffffffffffffffffffff168152602001908152602001600020600082825461111191906122c8565b92505081905550816002600083815260200190815260200160002060006101000a81548173ffffffffffffffffffffffffffffffffffffffff021916908373ffffffffffffffffffffffffffffffffffffffff160217905550808273ffffffffffffffffffffffffffffffffffffffff168473ffffffffffffffffffffffffffffffffffffffff167fddf252ad1be2c89b69c2b068fc378daa952ba7f163c4a11628f55a4df523b3ef60405160405180910390a4505050565b6111e482826040518060200160405280600081525061137b565b5050565b6111f182610d63565b611230576040517f08c379a0000000000000000000000000000000000000000000000000000000008152600401611227906127fc565b60405180910390fd5b806006600084815260200190815260200160002090805190602001906112579291906118a0565b505050565b611267848484610f6e565b611273848484846113d6565b6112b2576040517f08c379a00000000000000000000000000000000000000000000000000000000081526004016112a99061288e565b60405180910390fd5b50505050565b606060405180602001604052806000815250905090565b60606112da82610d63565b611319576040517f08c379a000000000000000000000000000000000000000000000000000000000815260040161131090612920565b60405180910390fd5b60006113236112b8565b90506000815111611343576040518060200160405280600081525061136e565b8061134d8461155e565b60405160200161135e92919061257c565b6040516020818303038152906040525b915050919050565b505050565b61138583836116bf565b61139260008484846113d6565b6113d1576040517f08c379a00000000000000000000000000000000000000000000000000000000081526004016113c89061288e565b60405180910390fd5b505050565b60006113f78473ffffffffffffffffffffffffffffffffffffffff1661188d565b15611551578373ffffffffffffffffffffffffffffffffffffffff1663150b7a02611420610dcf565b8786866040518563ffffffff1660e01b81526004016114429493929190612995565b6020604051808303816000875af192505050801561147e57506040513d601f19601f8201168201806040525081019061147b91906129f6565b60015b611501573d80600081146114ae576040519150601f19603f3d011682016040523d82523d6000602084013e6114b3565b606091505b506000815114156114f9576040517f08c379a00000000000000000000000000000000000000000000000000000000081526004016114f09061288e565b60405180910390fd5b805181602001fd5b63150b7a0260e01b7bffffffffffffffffffffffffffffffffffffffffffffffffffffffff1916817bffffffffffffffffffffffffffffffffffffffffffffffffffffffff191614915050611556565b600190505b949350505050565b606060008214156115a6576040518060400160405280600181526020017f300000000000000000000000000000000000000000000000000000000000000081525090506116ba565b600082905060005b600082146115d85780806115c190612a23565b915050600a826115d19190612a9b565b91506115ae565b60008167ffffffffffffffff8111156115f4576115f3611c7f565b5b6040519080825280601f01601f1916602001820160405280156116265781602001600182028036833780820191505090505b5090505b600085146116b35760018261163f9190612756565b9150600a8561164e9190612acc565b603061165a91906122c8565b60f81b8183815181106116705761166f612afd565b5b60200101907effffffffffffffffffffffffffffffffffffffffffffffffffffffffffffff1916908160001a905350600a856116ac9190612a9b565b945061162a565b8093505050505b919050565b600073ffffffffffffffffffffffffffffffffffffffff168273ffffffffffffffffffffffffffffffffffffffff16141561172f576040517f08c379a000000000000000000000000000000000000000000000000000000000815260040161172690612b78565b60405180910390fd5b61173881610d63565b15611778576040517f08c379a000000000000000000000000000000000000000000000000000000000815260040161176f90612be4565b60405180910390fd5b61178460008383611376565b6001600360008473ffffffffffffffffffffffffffffffffffffffff1673ffffffffffffffffffffffffffffffffffffffff16815260200190815260200160002060008282546117d491906122c8565b92505081905550816002600083815260200190815260200160002060006101000a81548173ffffffffffffffffffffffffffffffffffffffff021916908373ffffffffffffffffffffffffffffffffffffffff160217905550808273ffffffffffffffffffffffffffffffffffffffff16600073ffffffffffffffffffffffffffffffffffffffff167fddf252ad1be2c89b69c2b068fc378daa952ba7f163c4a11628f55a4df523b3ef60405160405180910390a45050565b600080823b905060008111915050919050565b8280546118ac9061201f565b90600052602060002090601f0160209004810192826118ce5760008555611915565b82601f106118e757805160ff1916838001178555611915565b82800160010185558215611915579182015b828111156119145782518255916020019190600101906118f9565b5b5090506119229190611926565b5090565b5b8082111561193f576000816000905550600101611927565b5090565b6000604051905090565b600080fd5b600080fd5b60007fffffffff0000000000000000000000000000000000000000000000000000000082169050919050565b61198c81611957565b811461199757600080fd5b50565b6000813590506119a981611983565b92915050565b6000602082840312156119c5576119c461194d565b5b60006119d38482850161199a565b91505092915050565b60008115159050919050565b6119f1816119dc565b82525050565b6000602082019050611a0c60008301846119e8565b92915050565b600081519050919050565b600082825260208201905092915050565b60005b83811015611a4c578082015181840152602081019050611a31565b83811115611a5b576000848401525b50505050565b6000601f19601f8301169050919050565b6000611a7d82611a12565b611a878185611a1d565b9350611a97818560208601611a2e565b611aa081611a61565b840191505092915050565b60006020820190508181036000830152611ac58184611a72565b905092915050565b6000819050919050565b611ae081611acd565b8114611aeb57600080fd5b50565b600081359050611afd81611ad7565b92915050565b600060208284031215611b1957611b1861194d565b5b6000611b2784828501611aee565b91505092915050565b600073ffffffffffffffffffffffffffffffffffffffff82169050919050565b6000611b5b82611b30565b9050919050565b611b6b81611b50565b82525050565b6000602082019050611b866000830184611b62565b92915050565b611b9581611b50565b8114611ba057600080fd5b50565b600081359050611bb281611b8c565b92915050565b60008060408385031215611bcf57611bce61194d565b5b6000611bdd85828601611ba3565b9250506020611bee85828601611aee565b9150509250929050565b600080600060608486031215611c1157611c1061194d565b5b6000611c1f86828701611ba3565b9350506020611c3086828701611ba3565b9250506040611c4186828701611aee565b9150509250925092565b611c5481611acd565b82525050565b6000602082019050611c6f6000830184611c4b565b92915050565b600080fd5b600080fd5b7f4e487b7100000000000000000000000000000000000000000000000000000000600052604160045260246000fd5b611cb782611a61565b810181811067ffffffffffffffff82111715611cd657611cd5611c7f565b5b80604052505050565b6000611ce9611943565b9050611cf58282611cae565b919050565b600067ffffffffffffffff821115611d1557611d14611c7f565b5b611d1e82611a61565b9050602081019050919050565b82818337600083830152505050565b6000611d4d611d4884611cfa565b611cdf565b905082815260208101848484011115611d6957611d68611c7a565b5b611d74848285611d2b565b509392505050565b600082601f830112611d9157611d90611c75565b5b8135611da1848260208601611d3a565b91505092915050565b600060208284031215611dc057611dbf61194d565b5b600082013567ffffffffffffffff811115611dde57611ddd611952565b5b611dea84828501611d7c565b91505092915050565b600060208284031215611e0957611e0861194d565b5b6000611e1784828501611ba3565b91505092915050565b611e29816119dc565b8114611e3457600080fd5b50565b600081359050611e4681611e20565b92915050565b60008060408385031215611e6357611e6261194d565b5b6000611e7185828601611ba3565b9250506020611e8285828601611e37565b9150509250929050565b600067ffffffffffffffff821115611ea757611ea6611c7f565b5b611eb082611a61565b9050602081019050919050565b6000611ed0611ecb84611e8c565b611cdf565b905082815260208101848484011115611eec57611eeb611c7a565b5b611ef7848285611d2b565b509392505050565b600082601f830112611f1457611f13611c75565b5b8135611f24848260208601611ebd565b91505092915050565b60008060008060808587031215611f4757611f4661194d565b5b6000611f5587828801611ba3565b9450506020611f6687828801611ba3565b9350506040611f7787828801611aee565b925050606085013567ffffffffffffffff811115611f9857611f97611952565b5b611fa487828801611eff565b91505092959194509250565b60008060408385031215611fc757611fc661194d565b5b6000611fd585828601611ba3565b9250506020611fe685828601611ba3565b9150509250929050565b7f4e487b7100000000000000000000000000000000000000000000000000000000600052602260045260246000fd5b6000600282049050600182168061203757607f821691505b6020821081141561204b5761204a611ff0565b5b50919050565b7f4552433732313a20617070726f76656420717565727920666f72206e6f6e657860008201527f697374656e7420746f6b656e0000000000000000000000000000000000000000602082015250565b60006120ad602c83611a1d565b91506120b882612051565b604082019050919050565b600060208201905081810360008301526120dc816120a0565b9050919050565b7f4552433732313a20617070726f76616c20746f2063757272656e74206f776e6560008201527f7200000000000000000000000000000000000000000000000000000000000000602082015250565b600061213f602183611a1d565b915061214a826120e3565b604082019050919050565b6000602082019050818103600083015261216e81612132565b9050919050565b7f4552433732313a20617070726f76652063616c6c6572206973206e6f74206f7760008201527f6e6572206e6f7220617070726f76656420666f7220616c6c0000000000000000602082015250565b60006121d1603883611a1d565b91506121dc82612175565b604082019050919050565b60006020820190508181036000830152612200816121c4565b9050919050565b7f4552433732313a207472616e736665722063616c6c6572206973206e6f74206f60008201527f776e6572206e6f7220617070726f766564000000000000000000000000000000602082015250565b6000612263603183611a1d565b915061226e82612207565b604082019050919050565b6000602082019050818103600083015261229281612256565b9050919050565b7f4e487b7100000000000000000000000000000000000000000000000000000000600052601160045260246000fd5b60006122d382611acd565b91506122de83611acd565b9250827fffffffffffffffffffffffffffffffffffffffffffffffffffffffffffffffff0382111561231357612312612299565b5b828201905092915050565b7f4552433732313a206f776e657220717565727920666f72206e6f6e657869737460008201527f656e7420746f6b656e0000000000000000000000000000000000000000000000602082015250565b600061237a602983611a1d565b91506123858261231e565b604082019050919050565b600060208201905081810360008301526123a98161236d565b9050919050565b7f4552433732313a2062616c616e636520717565727920666f7220746865207a6560008201527f726f206164647265737300000000000000000000000000000000000000000000602082015250565b600061240c602a83611a1d565b9150612417826123b0565b604082019050919050565b6000602082019050818103600083015261243b816123ff565b9050919050565b7f4552433732313a20617070726f766520746f2063616c6c657200000000000000600082015250565b6000612478601983611a1d565b915061248382612442565b602082019050919050565b600060208201905081810360008301526124a78161246b565b9050919050565b7f45524337323155524953746f726167653a2055524920717565727920666f722060008201527f6e6f6e6578697374656e7420746f6b656e000000000000000000000000000000602082015250565b600061250a603183611a1d565b9150612515826124ae565b604082019050919050565b60006020820190508181036000830152612539816124fd565b9050919050565b600081905092915050565b600061255682611a12565b6125608185612540565b9350612570818560208601611a2e565b80840191505092915050565b6000612588828561254b565b9150612594828461254b565b91508190509392505050565b7f4552433732313a206f70657261746f7220717565727920666f72206e6f6e657860008201527f697374656e7420746f6b656e0000000000000000000000000000000000000000602082015250565b60006125fc602c83611a1d565b9150612607826125a0565b604082019050919050565b6000602082019050818103600083015261262b816125ef565b9050919050565b7f4552433732313a207472616e73666572206f6620746f6b656e2074686174206960008201527f73206e6f74206f776e0000000000000000000000000000000000000000000000602082015250565b600061268e602983611a1d565b915061269982612632565b604082019050919050565b600060208201905081810360008301526126bd81612681565b9050919050565b7f4552433732313a207472616e7366657220746f20746865207a65726f2061646460008201527f7265737300000000000000000000000000000000000000000000000000000000602082015250565b6000612720602483611a1d565b915061272b826126c4565b604082019050919050565b6000602082019050818103600083015261274f81612713565b9050919050565b600061276182611acd565b915061276c83611acd565b92508282101561277f5761277e612299565b5b828203905092915050565b7f45524337323155524953746f726167653a2055524920736574206f66206e6f6e60008201527f6578697374656e7420746f6b656e000000000000000000000000000000000000602082015250565b60006127e6602e83611a1d565b91506127f18261278a565b604082019050919050565b60006020820190508181036000830152612815816127d9565b9050919050565b7f4552433732313a207472616e7366657220746f206e6f6e20455243373231526560008201527f63656976657220696d706c656d656e7465720000000000000000000000000000602082015250565b6000612878603283611a1d565b91506128838261281c565b604082019050919050565b600060208201905081810360008301526128a78161286b565b9050919050565b7f4552433732314d657461646174613a2055524920717565727920666f72206e6f60008201527f6e6578697374656e7420746f6b656e0000000000000000000000000000000000602082015250565b600061290a602f83611a1d565b9150612915826128ae565b604082019050919050565b60006020820190508181036000830152612939816128fd565b9050919050565b600081519050919050565b600082825260208201905092915050565b600061296782612940565b612971818561294b565b9350612981818560208601611a2e565b61298a81611a61565b840191505092915050565b60006080820190506129aa6000830187611b62565b6129b76020830186611b62565b6129c46040830185611c4b565b81810360608301526129d6818461295c565b905095945050505050565b6000815190506129f081611983565b92915050565b600060208284031215612a0c57612a0b61194d565b5b6000612a1a848285016129e1565b91505092915050565b6000612a2e82611acd565b91507fffffffffffffffffffffffffffffffffffffffffffffffffffffffffffffffff821415612a6157612a60612299565b5b600182019050919050565b7f4e487b7100000000000000000000000000000000000000000000000000000000600052601260045260246000fd5b6000612aa682611acd565b9150612ab183611acd565b925082612ac157612ac0612a6c565b5b828204905092915050565b6000612ad782611acd565b9150612ae283611acd565b925082612af257612af1612a6c565b5b828206905092915050565b7f4e487b7100000000000000000000000000000000000000000000000000000000600052603260045260246000fd5b7f4552433732313a206d696e7420746f20746865207a65726f2061646472657373600082015250565b6000612b62602083611a1d565b9150612b6d82612b2c565b602082019050919050565b60006020820190508181036000830152612b9181612b55565b9050919050565b7f4552433732313a20746f6b656e20616c7265616479206d696e74656400000000600082015250565b6000612bce601c83611a1d565b9150612bd982612b98565b602082019050919050565b60006020820190508181036000830152612bfd81612bc1565b905091905056fea26469706673582212200d3309985a6c80512f31bdbb017cc40ffc7ab1d36c69f5928c61203e73b7fa5c64736f6c634300080a0033",
    "immutableReferences": {},
    "source": "pragma solidity  0.8.10;\r\n\r\nimport \"@openzeppelin/contracts/token/ERC721/extensions/ERC721URIStorage.sol\";\r\n\r\ncontract PictureLocationNFT is ERC721URIStorage {\r\n\r\n    uint256 public idCounter;\r\n    constructor() public ERC721 (\"PictureLocationNFT\", \"PLN\") {\r\n        idCounter = 0;\r\n    }\r\n\r\n    function tokensTotal() public view returns (uint256) {\r\n        return idCounter;\r\n    }\r\n\r\n    function createToken(string memory plnUri) public returns (uint256) {\r\n        uint256 newId = idCounter;\r\n        _safeMint(msg.sender, newId);\r\n        _setTokenURI(newId, plnUri);\r\n        idCounter = idCounter + 1;\r\n        return newId;\r\n    }\r\n}",
    "sourcePath": "C:\\Users\\dzkha\\Documents\\NftSmartContract\\contracts\\PictureLocationNFT.sol",
    "compiler": {
        "name": "solc",
        "version": "0.8.10+commit.fc410830.Emscripten.clang"
    },
    "schemaVersion": "3.4.3",
    "updatedAt": "2022-01-10T14:54:04.851Z",
    "networkType": "ethereum",
    "devdoc": {
        "kind": "dev",
        "methods": {
            "approve(address,uint256)": {
                "details": "See {IERC721-approve}."
            },
            "balanceOf(address)": {
                "details": "See {IERC721-balanceOf}."
            },
            "getApproved(uint256)": {
                "details": "See {IERC721-getApproved}."
            },
            "isApprovedForAll(address,address)": {
                "details": "See {IERC721-isApprovedForAll}."
            },
            "name()": {
                "details": "See {IERC721Metadata-name}."
            },
            "ownerOf(uint256)": {
                "details": "See {IERC721-ownerOf}."
            },
            "safeTransferFrom(address,address,uint256)": {
                "details": "See {IERC721-safeTransferFrom}."
            },
            "safeTransferFrom(address,address,uint256,bytes)": {
                "details": "See {IERC721-safeTransferFrom}."
            },
            "setApprovalForAll(address,bool)": {
                "details": "See {IERC721-setApprovalForAll}."
            },
            "supportsInterface(bytes4)": {
                "details": "See {IERC165-supportsInterface}."
            },
            "symbol()": {
                "details": "See {IERC721Metadata-symbol}."
            },
            "tokenURI(uint256)": {
                "details": "See {IERC721Metadata-tokenURI}."
            },
            "transferFrom(address,address,uint256)": {
                "details": "See {IERC721-transferFrom}."
            }
        },
        "version": 1
    },
    "userdoc": {
        "kind": "user",
        "methods": {},
        "version": 1
    }
}